:10000000A2C00000BCC00000BAC00000B8C0000020
:10001000B6C00000B4C00000B2C00000B0C0000014
:10002000AEC0000041C40000AAC000000C94B40A95
:100030000C945B0BDEC30000A2C0000024C60000CD
:100040009EC000009CC000009AC0000098C0000044
:1000500096C0000094C0000092C000000C94870875
:100060008EC000008CC000008AC0000088C0000064
:1000700086C0000084C0000082C0000080C0000074
:100080007EC000007CC000007AC0000078C0000084
:1000900076C0000074C000001201100102000008C8
:1000A0004123100001000102DC0109023E000201AF
:1000B00000C0C8090400000102020100052400017B
:1000C0001004240206052406000107058203080027
:1000D000FF09040100020A000000070504024000B5
:1000E00001070583024000010403090432034100B3
:1000F00072006400750069006E006F002000280027
:100100007700770077002E006100720064007500B0
:1001100069006E006F002E0063006300290000007C
:100120002403410072006400750069006E006F00D6
:1001300020004D006500670061002000320035009E
:1001400036003000000011241FBECFEFD4E0DEBF28
:10015000CDBF11E0A0E0B1E0E4E3FDE102C0059015
:100160000D92A63AB107D9F713E0A6EAB1E001C0B3
:100170001D92A13BB107E1F7B6D60C94980E40CF83
:10018000CF93DF9390E0FC01EE0FFF1FDF01AE572E
:10019000BE4FED57FE4F20816FE470E00E94640E69
:1001A00082559E4FEC01C85BDF4F1882EC01C75BA4
:1001B000DF4F3FEF3883EC01C65BDF4F1882EC0165
:1001C000C25BDF4F1882EC01C35BDF4F388336E040
:1001D0003C93DC01A55BBF4F1C922C7F2083845B8A
:1001E0009F4FFC011082DF91CF910895CF93DF9351
:1001F000282F30E0C9016FE470E00E94640EFC011A
:10020000E255FE4FEF01C75BDF4FCF01885B9F4F89
:100210005881DC014C91E65BFF4F5417A1F44081FB
:100220004F5F40834B3080F0D901AA0FBB1FAE5700
:10023000BE4F4C91407E46604C93DC011C92108274
:100240008FEF888301C01082C9016FE470E00E94C3
:10025000640E82559E4FFC01E75BFF4F885B9F4F0A
:10026000DC018C918083DF91CF9108952F923F9292
:100270008F929F92BF92CF92DF92EF92FF920F9355
:100280001F93CF93DF93D82E282F30E04901880C9D
:10029000991C82E891E0880E991ED4011C91012FCF
:1002A000001F0027001FE1018A81A82FB0E0C901CB
:1002B0006FE070E00E94640EF101E80FF91F018801
:1002C00002C0B595A7950A94E2F7A170B070802F8F
:1002D00090E0E880F980A817B90709F4E9C1C901DD
:1002E0006FE470E00E94640EAC0142555E4FEA017B
:1002F000CC5BDF4F68817981D701A61BB70BBD01AD
:10030000EA01CA5BDF4FB983A883B12EB294B694D9
:10031000B694A3E0BA22CC24C394CB20B0FE79C11A
:10032000C781D085C617D70708F05BC1C185D285C4
:100330006C177D0708F055C1485B5F4FEA01688183
:1003400070E0EB016196CC0FDD1FC80FD91FC255BD
:10035000DE4F660F771F680F791F62557E4FDB01F6
:100360006D917C91D701A61BB70BB983A883EA01D5
:10037000088110FF00C1C02FD0E06196CC0FDD1FB7
:10038000C80FD91FC255DE4F0990D881C02D858175
:100390009681C817D90748F4838194818C179D07EB
:1003A00020F41B7FF401108308C0F901EE0FFF1F3A
:1003B000EE57FE4F808184608083D901AA0FBB1F56
:1003C000FD01ED57FE4F408141FF1AC0C9016FE4A6
:1003D00070E00E94640EFC01E255FE4FEF01C45B29
:1003E000DF4F8881E85BFF4F081739F4AE57BE4FE7
:1003F0008C9188608E7F8C93BCC00F5F008341C15D
:10040000AE57BE4F40FD21C08C9182608C9382FD1F
:100410009AC0013009F097C0C9016FE470E00E94F2
:10042000640E82559E4FDC01A25BBF4F1C9240813F
:1004300041604083FC01E45BFF4F0083FC01E35B10
:10044000FF4F4FEF4083FC011DC08C9182FD1FC008
:10045000C9016FE470E00E94640EFC01E255FE4F9A
:10046000DF01A45BBF4F0C93C9016FE070E00E94F5
:10047000640ED101A80FB91F50968C915097801728
:1004800008F461C0E85BFF4F80818F5FF9C0C9014C
:100490006FE070E00E94640ED101A80FB91F1B9697
:1004A0008D919C911C978C179D0708F04CC01D9650
:1004B0008D919C911E97C817D90708F044C0C901B7
:1004C0006FE470E00E94640EDC01A255BE4F8D0106
:1004D000045B1F4FC90101966FE070E00E94640E3B
:1004E000820D931DE8015881EC018881581758F15D
:1004F000CD01885B9F4F51E0EC015883CD01835BB8
:100500009F4FEC016881E80158816F3FC9F0651782
:10051000D1F4A25BBF4F5C915F5F5C935881EC01AB
:1005200058838C918A3008F4ACC042604E7F40837F
:10053000DD2009F0A6C08091FA018093AC01A1C032
:10054000FC0150839EC0F901EE0FFF1FDF01AD5784
:10055000BE4F8C918E7F8C93EE57FE4F80818E7FA5
:100560008083C9016FE470E00E94640EFC01EA50D0
:10057000FE4F108286C0C02FD0E06196CC0FDD1FE9
:10058000C80FD91FC255DE4F888199816385748554
:100590006817790760F4658576858617970738F4BC
:1005A0001D7F1160D4011C93EA01C88212C0F901B9
:1005B000EE0FFF1FEE57FE4F808182608E7F80839B
:1005C000C9016FE470E00E94640EFC01EA50FE4F26
:1005D0001082F901EE0FFF1FEE57FE4F8081877FDB
:1005E0004FC0F901EE0FFF1FDF01AE57BE4F8C91D8
:1005F0008260867F8C93C9016FE470E00E94640E74
:10060000DC01AA50BE4F1C92ED57FE4F80818E7FB9
:1006100037C015FD08C01262F4011083455B5F4FBF
:10062000DA011C922EC0878190858617970790F477
:10063000818592856817790768F4FA01E55BFF4FB9
:1006400080818F5F80838035E0F010641F7DE4013E
:10065000188317C0C9016FE470E00E94640EFC01AA
:10066000E750FE4F1082F901EE0FFF1FEE57FE4FCD
:1006700091E0902797959927979580818F77892B7F
:100680008083C9016FE470E00E94640EFC01EA50AF
:10069000FE4FE081F0E0EE0FFF1FE80FF91FE2557B
:1006A000FE4FD1018D919C911197918380830AC057
:1006B000C9016FE470E00E94640EFC01EE50FE4F31
:1006C000F182E082DF91CF911F910F91FF90EF9027
:1006D000DF90CF90BF909F908F903F902F90089584
:1006E000429A81E08093AA01589808954298109206
:1006F000AA01589A0895DF93CF930F92CDB7DEB732
:100700008091A801882311F58FB78983F8941092FE
:100710008500109284008FEF9FEF90938900809363
:10072000880080E48093800082E080938100809143
:100730006F00826080936F0081E08093A8018091B8
:10074000A601833009F05D9889818FBF0F90CF910A
:10075000DF910895DF93CF930F92CDB7DEB78091ED
:10076000A8018823C9F08FB78983F89480916F001E
:100770008D7F80936F00109280008091A60183305E
:1007800011F0109281001092A8018091A60183308F
:1007900009F05D9A89818FBF0F90CF91DF91089505
:1007A00090E0DC01AA0FBB1FAE57BE4F3C91232F38
:1007B0002695217059F432FD0BC033FF09C030611A
:1007C0003C938091A801882399F0C4CF213041F057
:1007D000FC01EE0FFF1FEE57FE4F208122FF08C0E5
:1007E000FC01EE0FFF1FEE57FE4F80818F7E80834E
:1007F00008951F920F920FB60F9211242F933F93DB
:100800004F935F936F937F938F939F93AF93BF9318
:10081000EF93FF9380916A01882321F08091A901D1
:10082000882389F18091A601813049F480912C01BF
:1008300090912D01909351018093500114C080E05C
:1008400090E09C01220F331FF901EE5DFE4F4081C5
:1008500051812A5B3E4FF9015183408301968231D9
:10086000910579F748DF8091A601833011F05C98FB
:1008700003C05C985D98479881E080936A0110926C
:10088000A9011092A701FF91EF91BF91AF919F91A4
:100890008F917F916F915F914F913F912F910F9029
:1008A0000FBE0F901F9018951F920F920FB60F92C8
:1008B00011242F923F920F931F932F933F934F93A7
:1008C0005F936F937F938F939F93AF93BF93EF93B8
:1008D000FF93DF93CF93CDB7DEB7A197DEBFCDBF38
:1008E00040918400509185005A8349838091A601EC
:1008F0008230C9F48091A801882309F02BDF189B6E
:1009000002C0469A01C04698A89510926A0180914B
:100910004D028F5F80934D02813808F49AC14D9A41
:1009200010924D0296C18091A601813009F073C0EA
:1009300023B02B82A0914C02A225BA0160527340D1
:1009400001E0B1E08B2F8A2309F442C08B2F809500
:10095000A8232B2F2221802F90E041F0FC01EE0FE5
:10096000FF1FE15BFD4F5183408332C0FC01EE0F5E
:10097000FF1FE15BFD4F20813181FB01E21BF30B87
:100980009F01FDE029343F0740F5E3E0283E3E07A4
:1009900020F1A89510926A01FC01E757FD4F1081E4
:1009A000143618F410811F5F1083FC01E958FD4FC5
:1009B0001082FC01EE0FFF1FEA5BFE4F80819181E8
:1009C0000296821B930B8530910510F031832083B2
:1009D000AA2349F00E5FBB0FB5CF8091A7018F5FAF
:1009E0008093A701F5CF8091A801882309F483DEC5
:1009F00080914E028F5F80934E02882341F44C9A7F
:100A00008091A701853618F088EC80934E028B8187
:100A100080934C021EC18091A601833009F019C158
:100A2000DE011496E6E8F1E08EE101900D9281502E
:100A3000E1F783B18B8300914C02082780934C022D
:100A400080916A01882351F080E09ADB81E098DB95
:100A50001092AD011092AB0110926A018091AD012C
:100A6000882331F44091820144FF24C02A8905C0C3
:100A70004091840144FF1EC029A1802F90E0022EE6
:100A800002C0959587950A94E2F780FF13C08B8189
:100A900090E002C0959587952A95E2F78170907055
:100AA000441F4427441F50E08417950711F0469ACD
:100AB00001C04698202F30E06A8941E050E0CA0129
:100AC00009A002C0880F991F0A94E2F7062E02C0FF
:100AD000440F551F0A94E2F7842B952B822393230E
:100AE000009791F08E010F5F1F4F180180E0BEDB71
:100AF00081E0BCDB1092F8018FEF8093F701109238
:100B00004702809346021DC002C0359527956A951D
:100B1000E2F71E010894211C311C20FF09C080E06F
:100B2000A5DB8091840180618093840181E008C00D
:100B300081E09CDB8091820180618093820180E072
:100B400055DB80E02DDE81E02BDE2091820124FF49
:100B500039C0E091AC01F0E0EE0FFF1FE053FE4F13
:100B600080819181FFE0813A9F07B0F090918401EC
:100B70008091AD0194FF0AC0882309F04BC081E049
:100B80008093AD0184E68093AB0144C0813009F0CD
:100B900041C023FF3FC03CC08091AD01813079F45A
:100BA00023FF38C08091AB018F5F8093AB01843607
:100BB00020F48091840184FD2DC01092AD0110922B
:100BC000AB0128C08091840184FF0AC09091AD01DF
:100BD000992301F583FF1EC081E08093AD011AC007
:100BE0008091A8018823A1F480E090E09C01220F6D
:100BF000331FF901EE5DFE4F408151812A5B3E4F6C
:100C0000F9015183408301968231910579F773DDB3
:100C10001092AD01A8958091820184FD02C05D987B
:100C200001C05D9A8091840184FD02C05C9801C07E
:100C30005C9A8091AD01813059F4809173028F5F8D
:100C4000809373028E3F28F0379A1092730201C08E
:100C50004798A196DEBFCDBFCF91DF91FF91EF9175
:100C6000BF91AF919F918F917F916F915F914F91C4
:100C70003F912F911F910F913F902F900F900FBE9A
:100C80000F901F90189578941F920F920FB60F92A5
:100C900011242F933F938F939F93EF93FF93E091B2
:100CA0006B01F0E0E958FD4F8081893208F43CC0C7
:100CB00080916B018830E8F4F8942091880030919D
:100CC0008900E0916B01F0E0EE0FFF1FEE5DFE4F3B
:100CD00080819181820F931F909389008093880077
:100CE000789480916B018530C9F481E080936A012A
:100CF00015C0F8942091880030918900E0916B0133
:100D0000F0E0EE0FFF1FEA5BFE4F80819181820FC2
:100D1000931F909389008093880078948091A60116
:100D2000833039F15C9825C0F89420918800309187
:100D30008900E0916B01F0E0EE0FFF1FEA5BFE4FD0
:100D400080819181820F931F909389008093880006
:100D50007894E0916B01F0E0E757FD4F8081843695
:100D600040F0E0916B01F0E0E958FD4F80818F5F2A
:100D7000808380916B018F5F80936B0180916B0109
:100D8000823138F010926B018091A601833009F016
:100D90004D9AFF91EF919F918F913F912F910F90DD
:100DA0000FBE0F901F90189504B600FC0BC004B640
:100DB00001FC08C004B602FE05C014BE81E08093A9
:100DC000A90101C014BE3A9A549A559A3F9A5C9A66
:100DD0005D9A479A8091A601882399F52198299ACE
:100DE00026982E9A229A2A98279A2F982AE02A95AE
:100DF000F1F700C091E0199990E081E01E9980E040
:100E00002A9A2F9A2AE02A95F1F700C019999F5F34
:100E10001E998F5F2A982F982AE02A95F1F700C033
:100E2000199B9F5F1E9B8F5F933011F482E007C078
:100E3000833021F48093A601479803C081E080931A
:100E4000A60114B885B18FEF85B9509A8091AA0197
:100E5000882311F0589801C0589A8091A6018130DA
:100E600019F48FEF80936B008091A601823019F402
:100E700081E080936B008091A601833031F481E1A1
:100E800080936B0082E08093810080916800816094
:100E9000809368003E9A88E10FB6F89480936000D2
:100EA000109260000FBEA8958091600088618093C9
:100EB000600084E480936000089587E690E090935A
:100EC000CD008093CC0086E08093CA001092C800C9
:100ED00088E18093C900539A5A9A3BD384E085BD38
:100EE0005F9A579A0895CF92DF92EF92FF920F93F5
:100EF0001F935ADFE2DF8FB7F89420E233E030939C
:100F0000A1032093A0033093A3032093A2038FBFD8
:100F10004FB7F8948BE992E090931C0380931B03E6
:100F200090931E0380931D034FBF7894122F032FBD
:100F3000E82ED92E23E0F22E9FB7F8948091A403D7
:100F40009FBF803811F18CE691E092D697FD1DC0CD
:100F5000E091A003F091A1038083E091A003F091C0
:100F6000A103CF0101969093A1038093A00323E0F6
:100F7000803A920711F4118302839FB7F89480910D
:100F8000A4038F5F8093A4039FBF8FB7F894C09092
:100F90001F038FBFA89903C08C2D813638F1A89A02
:100FA00080911F03882301F1F09274021DC0E0912B
:100FB0001D03F0911E036191F0931E03E0931D0346
:100FC00023E0EB31F20721F4E0921D03D0921E03DF
:100FD0009FB7F89480911F03815080931F039FBF98
:100FE0008CE691E0DED5CA94CC2009F79FB7F8943F
:100FF0008091A4039FBF882309F1E091A203F0919F
:10100000A3039191F093A303E093A20383E0E03A5A
:10101000F80721F41093A2030093A3032FB7F894C9
:101020008091A40381508093A4032FBF8091C800B6
:1010300085FFFCCF9093CE00F09275028CE691E094
:1010400008D6DAD479CF8CE691E072C58CE691E0CF
:1010500005C51F93CF93DF93EC01EC89E150E2309B
:1010600028F4F0E0EC55FE4F108101C010E08B89B0
:10107000823009F418608D89873031F0883031F082
:10108000863029F4126003C0146001C0166010920B
:10109000C9001092C8001092CA002F85388949896A
:1010A0005A89203081EE380780E0480780E05807F1
:1010B00071F0CA01B9019695879577956795605843
:1010C0007B47814E9F4F12D62150304002C020E115
:1010D00030E03093CD002093CC001093CA008F8570
:1010E0009889A989BA89803021EE920720E0A20769
:1010F00020E0B20711F480E001C082E08093C800D4
:1011000088E98093C900DF91CF911F9108951F92C4
:101110000F920FB60F9211242F938F939F93EF93FB
:10112000FF938091CE009EB39430F9F4E0911B03BD
:10113000F0911C038083E0911B03F0911C03CF010D
:10114000019690931C0380931B0323E08B3192073D
:1011500021F48BE992E0928381839FB7F894809188
:101160001F038F5F80931F039FBFFF91EF919F919C
:101170008F912F910F900FBE0F901F901895FC012B
:10118000858580FF02C05F9808955F9A0895923028
:1011900029F0933041F09130F9F419C02EE330E09A
:1011A000EAEAF0E01DC0813049F0813018F0823069
:1011B00099F408C0E8EEF0E0249107C0ECEEF0E00E
:1011C000249103C0E0E2F1E0249130E009C022E183
:1011D00030E0E8E9F0E004C020E030E0E0E0F0E0FA
:1011E000DA011196FC93EE93C901089528E030E0EE
:1011F00040E003C04F5F220F331F28173907D0F399
:10120000842F8295807F08958093E900EBEEF0E0D3
:10121000808181608083EDEEF0E010826093EC00CD
:1012200040838091EE00881F8827881F08951092C0
:10123000F40080E08093E9001092F0001092E80042
:101240001092ED009091EB009E7F9093EB008F5FEA
:10125000853081F708958091A90387FF11C003C0ED
:101260008EB38823B1F08091E80082FFF9CF80919E
:10127000E8008B778093E80008958EB3882349F0C7
:101280008091E80080FFF9CF8091E8008E7780930D
:10129000E800089584E69091EC0090FF05C09091DD
:1012A000E80090FF05C01BC09091E80092FD17C0B8
:1012B0009EB39923B1F09EB39530A9F09091EB00C5
:1012C00095FD13C09091E10092FFE5CF9091E10070
:1012D0009B7F9093E100882351F08150DCCF80E028
:1012E000089582E0089583E0089581E0089584E000
:1012F0000895282F392FF9018091AF039091B00301
:101300008617970718F4BC0190E032C0611571058B
:10131000D9F78091E8008E778093E800F5CF80912F
:10132000E80083FD37C08091E80082FD2DC08EB3B8
:101330008823A1F18EB3853079F18091E80080FF98
:1013400017C08091F20006C091919093F100615016
:1013500070408F5F6115710511F08830A8F391E03E
:10136000883009F090E08091E8008E778093E80063
:1013700061157105A1F6992391F606C08EB38823F5
:1013800069F08EB3853061F08091E80082FFF6CF7E
:1013900080E0089581E0089583E0089582E0089553
:1013A00083E00895282F392FC9012091AF03309190
:1013B000B0032617370718F4B90130E034C06115BF
:1013C0007105D9F72091E8002E772093E800F5CF3A
:1013D0002091E80023FD39C02091E80022FD2FC0B4
:1013E0002EB32223B1F12EB3253089F12091E800EC
:1013F00020FF19C02091F20008C0FC010196E49181
:10140000E093F100615070402F5F6115710511F09C
:10141000283098F331E0283009F030E02091E800DE
:101420002E772093E8006115710591F6332381F63C
:1014300006C08EB3882369F08EB3853061F0809149
:10144000E80082FFF6CF80E0089581E0089583E010
:10145000089582E0089583E008956115710519F5F6
:101460001DC02091E80023FD2EC02EB3222379F168
:101470002EB3253051F12091E80022FFF2CFE82F62
:10148000F92F07C08091F1008193CF016150704026
:1014900029F0CF012091F2002223A1F72091E8004A
:1014A0002B772093E80061157105D9F606C08EB33D
:1014B000882369F08EB3853061F08091E80080FF69
:1014C000F6CF80E0089581E0089583E0089582E0FA
:1014D000089583E0089542D044D01EBA1092A70325
:1014E0001092A6031092A50384E089BD89B582609D
:1014F00089BD09B400FEFDCF8091D800982F9F7759
:101500009093D80080688093D800809163008E7F8C
:10151000809363008091D8008F7D8093D800809164
:10152000E0008E7F8093E0008091E1008E7F8093C9
:10153000E1008091E20081608093E2008091E1000F
:10154000877F8093E1008091E20088608093E200D1
:101550000895C1DF81E08093A80308951092E2000E
:1015600008951092E10008951F920F920FB60F9206
:1015700011242F933F934F935F936F937F938F9398
:101580009F93AF93BF93EF93FF938091E10080FF10
:101590001BC08091E20080FF17C08091E1008E7F28
:1015A0008093E1008091E2008E7F8093E200809141
:1015B000E20080618093E2008091D8008062809395
:1015C000D80019BC1EBA92D88091E10084FF29C0CE
:1015D0008091E20084FF25C084E089BD89B58260E6
:1015E00089BD09B400FEFDCF8091D8008F7D809326
:1015F000D8008091E1008F7E8093E1008091E2002D
:101600008F7E8093E2008091E20081608093E2000F
:101610008091A703882311F084E001C081E08EBB94
:101620005FD88091E10083FF27C08091E20083FFB3
:1016300023C08091E100877F8093E10082E08EBB30
:101640001092A7038091E1008E7F8093E10080914A
:10165000E2008E7F8093E2008091E20080618093BF
:10166000E200E5DD80E060E042E0CEDD8091F00068
:1016700088608093F000BFD18091E10082FF0AC0B2
:101680008091E20082FF06C08091E1008B7F809311
:10169000E100B1D1FF91EF91BF91AF919F918F91F7
:1016A0007F916F915F914F913F912F910F900FBE5E
:1016B0000F901F9018951F920F920FB60F92112442
:1016C000EF92FF920F931F932F933F934F935F934C
:1016D0006F937F938F939F93AF93BF93EF93FF93FA
:1016E000DF93CF930F92CDB7DEB789EEE82EF12CC2
:1016F000F70180818770108200EF10E0F80190817F
:10170000977F90837894898322D0F894F701108290
:10171000F8019081986090838981F70180830F9010
:10172000CF91DF91FF91EF91BF91AF919F918F91F9
:101730007F916F915F914F913F912F911F910F91E9
:10174000FF90EF900F900FBE0F901F9018951F9372
:10175000DF93CF93CDB7DEB7AC970FB6F894DEBF6B
:101760000FBECDBFE9EAF3E08091F100819323E061
:10177000E13BF207C9F78091A9032091AA03253024
:1017800009F484C0263040F42130A1F1213070F0FA
:10179000233009F017C12EC0283009F4E9C02930E0
:1017A00009F4F8C0263009F00DC18EC0803821F050
:1017B000823809F007C108C08091A5039091A60363
:1017C000992371F082600CC08091AD038770809383
:1017D000E9009091EB0081E095FF80E01092E90034
:1017E0009091E800977F9093E8008093F100109229
:1017F000F100C9C0882319F0823009F0E3C090E0FD
:101800008F719070009729F08230910509F0DBC04C
:101810000BC08091AB03813009F0D5C0233009F0B3
:1018200080E08093A6032CC08091AB03882341F510
:101830002091AD03277009F4C6C02093E900809180
:10184000EB0080FFC0C08091AA03833021F4809117
:10185000EB00806213C08091EB0080618093EB000D
:1018600081E090E002C0880F991F2A95E2F78093EB
:10187000EA001092EA008091EB0088608093EB0010
:101880001092E9008091E800877F80C0882309F0EA
:1018900099C01091AB038091E800877F8093E800A6
:1018A000DADC04C08EB3882309F48DC08091E8008F
:1018B00080FFF8CF1F7711F083E001C082E08EBB7C
:1018C00010681093E3007FC08058823008F07AC01F
:1018D0008091AB039091AC0323E08C3D920789F596
:1018E00083E08C838AE28B833FB7F894DE01159600
:1018F00080E090E02EE041E2E22FF0E040935700DC
:10190000E49180FF03C0E295EF702F5FEF705E2FD0
:10191000505D5A3308F0595F5C9311961C921197F1
:10192000129601968431910539F73FBF8091E80006
:10193000877F8093E800CE0103966AE270E0D9DCED
:1019400011C06091AD03AE014F5F5F4F20DCBC0161
:101950000097C9F18091E800877F8093E800898132
:101960009A8120DD8091E8008B778093E8002BC07E
:10197000803841F58091E800877F8093E80080916E
:10198000A7038093F1008091E8008E778093E800B0
:1019900062DC19C08823B1F49091AB03923098F4C3
:1019A0008091E800877F8093E8009093A70353DC41
:1019B0008091A703882311F084E001C083E08EBBEF
:1019C00042DB01C043DB8091E80083FF0AC08091C5
:1019D000EB0080628093EB008091E800877F80932A
:1019E000E800AC960FB6F894DEBF0FBECDBFCF9126
:1019F000DF911F91089508951F938EB3882361F09E
:101A00001091E90017701092E9008091E80083FFBF
:101A100001C09DDE1093E9001F910895FF920F937E
:101A20001F93DF93CF930F92CDB7DEB7182FF42E0D
:101A3000C9016983DBDB69816295660F660F607C93
:101A40006F29402F4260482B812FDEDB0F90CF9112
:101A5000DF911F910F91FF9008950895CF93DF9329
:101A6000EC018091E80083FF60C0888190E02091C4
:101A7000AD033091AE032817390709F056C08091A5
:101A8000AA03813261F0823220F4803209F04DC025
:101A900019C0823269F1833209F047C038C08091A1
:101AA000A903813A09F041C08091E800877F8093C3
:101AB000E800CE010F9667E070E01BDC8091E80043
:101AC0008B7713C08091A903813279F58091E8006A
:101AD000877F8093E800CE010F9667E070E0BDDC61
:101AE000CE01B7DA8091E8008E778093E8001DC0C0
:101AF0008091A9038132C9F48091E800877F8093A7
:101B0000E8008091AB038D87CE0139DB0DC0809159
:101B1000A903813251F48091E800877F8093E80027
:101B2000CE016091AB0399DF96DBDF91CF910895F1
:101B30000F93CF93DF93EC010D96FC0189E0DF0159
:101B40001D928A95E9F72A813B8189819C8199239D
:101B500011F004E001C000E062E041E05FDF8130AD
:101B6000D9F42E813F818D819885992311F004E06D
:101B700001C000E062E040E051DF813069F42A8575
:101B80003B8589859C85992311F004E001C000E024
:101B900063E041E043DF01C080E0DF91CF910F912E
:101BA0000895DF93CF930F92CDB7DEB7FC018EB3CC
:101BB0008430F1F427853089418952892115310516
:101BC00041055105A9F081818093E9008091E800E9
:101BD00085FD0AC08091E8008E778093E8006983D4
:101BE00059DB6981882329F46093F10080E001C00A
:101BF00082E00F90CF91DF910895FC018EB3843085
:101C000011F5278530894189528921153105410512
:101C10005105C9F081818093E9008091F200882309
:101C2000A1F09091E8008091E8008E778093E80021
:101C300095FD0DC02FDB882359F49091E8009E7725
:101C40009093E800089582E0089580E0089580E090
:101C500008952EB3243059F4FC0127853089418939
:101C60005289211531054105510509F0C6CF089566
:101C7000FC018EB3843021F5278530894189528952
:101C80002115310541055105D9F085818093E90081
:101C90008091E80082FF14C08091F200882321F037
:101CA0002091F10030E002C02FEF3FEF8091F20071
:101CB000882341F48091E8008B778093E80002C08C
:101CC0002FEF3FEFC90108955527002480FF02C080
:101CD000060E571F660F771F6115710521F0969547
:101CE0008795009799F7952F802D0895A1E21A2ED8
:101CF000AA1BBB1BFD010DC0AA1FBB1FEE1FFF1FB0
:101D0000A217B307E407F50720F0A21BB30BE40BFF
:101D1000F50B661F771F881F991F1A9469F7609546
:101D20007095809590959B01AC01BD01CF01089500
:041D3000F894FFCF55
:101D34004172647550504D76332E302E3100002D93
:101D440047504C76332D6C6963656E63696E672DFD
:101D5400000020039808200398082003E8032003C8
:101D640098082003060920039808200398082003F4
:101D74009808200308522003980820039808200399
:101D840078052003980820030609200398082003F7
:101D9400980820039808200308520111000340000A
:101DA40000044000000208000000000000000000E1
:101DB400000006000600AA05C61190011A041815B1
:101DC40060EA051000AA05C61190011A04181560EE
:061DD400EA0510043020B6
:00000001FF
