:10000000A2C00000BCC00000BAC00000B8C0000020
:10001000B6C00000B4C00000B2C00000B0C0000014
:10002000AEC0000091C40000AAC000000C94EF0A0A
:100030000C94980B2EC40000A2C000005FC6000004
:100040009EC000009CC000009AC0000098C0000044
:1000500096C0000094C0000092C000000C94C2083A
:100060008EC000008CC000008AC0000088C0000064
:1000700086C0000084C0000082C0000080C0000074
:100080007EC000007CC000007AC0000078C0000084
:1000900076C0000074C000001201100102000008C8
:1000A0004123100001000102DC0109023E000201AF
:1000B00000C0C8090400000102020100052400017B
:1000C0001004240206052406000107058203080027
:1000D000FF09040100020A000000070504024000B5
:1000E00001070583024000010403090432034100B3
:1000F00072006400750069006E006F002000280027
:100100007700770077002E006100720064007500B0
:1001100069006E006F002E0063006300290000007C
:100120002403410072006400750069006E006F00D6
:1001300020004D006500670061002000320035009E
:1001400036003000000011241FBECFEFD4E0DEBF28
:10015000CDBF11E0A0E0B1E0EEEAFDE102C0059004
:100160000D92A63AB107D9F713E0A6EAB1E001C0B3
:100170001D92A33BB107E1F7F1D60C94D50E40CF09
:10018000CF93DF9390E0FC01EE0FFF1FDF01AE572E
:10019000BE4FED57FE4F208160E570E00E94A10E3A
:1001A00082559E4FEC01C85BDF4F1882EC01C75BA4
:1001B000DF4F3FEF3883EC01C65BDF4F1882EC0165
:1001C000C25BDF4F1882EC01C35BDF4F3883EC0169
:1001D000C15BDF4F188236E03C93DC01A55BBF4F6B
:1001E0001C92207F2083845B9F4FFC011082DF9153
:1001F000CF910895429A81E08093AA01589808957A
:1002000042981092AA01589A0895DF93CF930F92C3
:10021000CDB7DEB78091A801882399F58FB7898380
:10022000F89410928500109284008FEF9FEF9093C6
:100230008900809388008091A601813069F0109236
:10024000810080EC809380008091820080688093A0
:10025000820081E180936B0180E48093800082E0E2
:100260008093810080916F00826080936F0081E0B5
:100270008093A8018091A601833009F05D9889815F
:100280008FBF0F90CF91DF910895DF93CF930F929F
:10029000CDB7DEB78091A8018823C9F08FB78983D5
:1002A000F89480916F008D7F80936F001092800092
:1002B0008091A601833011F0109281001092A80164
:1002C0008091A601833009F05D9A89818FBF0F90DC
:1002D000CF91DF9108952F923F92AF92BF92CF922C
:1002E000DF92EF92FF920F931F93CF93DF93D82E5D
:1002F000282F30E0E901CC0FDD1FCE57DE4FE8801C
:10030000FE2CFF1CFF24FF1CD10112960C911297AA
:1003100010E0C9016FE070E00E94A10EF101E80F4A
:10032000F91F018802C0159507950A94E2F701703C
:1003300010708F2D90E0AD90BC90119708171907A1
:1003400009F490C2C90160E570E00E94A10E8C0121
:1003500002551E4FC8018C5B9F4FDC018D919C9113
:10036000A501481B590BCA01A8014A5B5F4FDA017E
:1003700011969C938E934E2D4295469546954370CB
:10038000CC24C394C42240FF7AC1478150854817CA
:10039000590708F05CC1418552858417950708F01C
:1003A00056C1085B1F4FD8014C91C90168E270E04B
:1003B0000E94A10EBC01640F711DAB01440F551FBB
:1003C00040535E4F660F771F62557E4FDB016D9184
:1003D0007C91D501A61BB70BBD01DA016D937C930F
:1003E000D8014C91E0FEFEC0840F911D880F991F2B
:1003F00080539E4FDC010D911C9111978581968150
:100400000817190748F4838194818017910720F415
:100410008E2D8B7F888308C0F901EE0FFF1FEE57EA
:10042000FE4F808184608083F901EE0FFF1F63E837
:10043000E62E61E0F62EEE0EFF1ED701CC90C1FE37
:100440001CC0C90160E570E00E94A10EEC01C2551C
:10045000DE4FCE01845B9F4FDC018C91C85BDF4F88
:10046000481741F4EE57FE4F808188608E7F80836D
:1004700018823DC14F5F48833AC1EE57FE4FC0FC22
:1004800022C080818260808382FD94C0413009F067
:1004900091C0C90160E570E00E94A10E82559E4F97
:1004A000FC01E25BFF4F1082F701508151605083E5
:1004B000FC01E45BFF4F4083FC01E35BFF4F4FEF28
:1004C0004083FC011BC0808182FD1DC0C90160E525
:1004D00070E00E94A10EFC01E255FE4FEF01C45BEB
:1004E000DF4F4883C9016FE070E00E94A10EE10177
:1004F000C80FD91F8889841708F45CC0E85BFF4FD8
:1005000080818F5FF3C0C9016FE070E00E94A10E8F
:10051000F101E80FF91F838594858017910708F092
:1005200049C0858596850817190708F043C0C90199
:1005300060E570E00E94A10EFC01E255FE4FEF0164
:10054000C45BDF4FC90101966FE070E00E94A10E0D
:10055000820D931D4881DC018C91481758F1CF0121
:10056000885B9F4F41E0DC014C93CF01835B9F4F41
:10057000DC015C9148815F3FD1F05417D9F4E25B14
:10058000FF4F40814F5F408348814C9380818A3088
:1005900008F4ADC08C2D82608E7FF7018083DD2052
:1005A00009F0A5C08091FA018093AC01A0C0DC01E4
:1005B0004C939DC0F901EE0FFF1FEF01CD57DE4FA9
:1005C00088818E7F8883EE57FE4F80818E7F808367
:1005D000C90160E570E00E94A10EFC01EA50FE4FE7
:1005E000108285C0840F911D880F991F80539E4FE4
:1005F000DC018D919C9111974385548548175907CB
:1006000060F4458556858417950738F48E2D8D7FC7
:1006100081608883F801C08212C0F901EE0FFF1FCC
:10062000EE57FE4F808182608E7F8083C90160E536
:1006300070E00E94A10EFC01EA50FE4F1082F90109
:10064000EE0FFF1FEE57FE4F8081877F4FC0F901ED
:10065000EE0FFF1FEF01CE57DE4F88818260867F4D
:100660008883C90160E570E00E94A10EEC01CA50C8
:10067000DE4F1882ED57FE4F80818E7F37C0E5FC3C
:1006800008C08E2D82628883055B1F4FD8011C92A3
:100690002EC0478150854817590790F441855285EF
:1006A0008417950768F4F801E55BFF4F80818F5F41
:1006B00080838035E0F08E2D80648F7D888317C025
:1006C000C90160E570E00E94A10EFC01E750FE4FF9
:1006D0001082F901EE0FFF1FEE57FE4F91E09F25AC
:1006E00097959927979580818F77892B8083C9016A
:1006F00060E570E00E94A10EFC01EA50FE4F4081CF
:10070000C90168E270E00E94A10EFC01E40FF11D36
:10071000EE0FFF1FE255FE4FD1018D919C91119775
:100720009183808341E0D11040E0E1E0F0E0442398
:1007300011F0E0E0F0E0EE0FFF1FEE57FE4F80817A
:1007400084FF3BC0242F30E0C90160E570E00E94C7
:10075000A10EFC01E255FE4FEF01C75BDF4FCF0159
:10076000885B9F4F6881DC015C91E65BFF4F6517FA
:10077000A1F450815F5F50835B3080F0D901AA0FF4
:10078000BB1FAE57BE4F5C91507E56605C93DC0140
:100790001C9210828FEF888301C01082C90160E52E
:1007A00070E00E94A10E82559E4FFC01E75BFF4F57
:1007B000885B9F4FDC018C91808381E0842790E0EF
:1007C000FC01EE0FFF1FDF01AE57BE4F3C9131FD24
:1007D0003AC032FD38C0ED57FE4F208122FD0CC0DB
:1007E00033FF4AC0246060E570E00E94A10EDC0186
:1007F000A350BE4F1C9224C0432F46954695469564
:1008000023FD1CC040FD17C060E570E00E94A10EF2
:10081000EC01C350DE4F88818F5F8883286020837E
:10082000823050F18C9180618C938091A801882353
:1008300019F12BDD21C03F7E3C9310C040FF1CC04E
:10084000277F208319C0FC01EE0FFF1FDF01AE5789
:10085000BE4F8C918F7E8C93ED57FE4F80818B7FA6
:1008600080830AC0C90160E570E00E94A10EFC010E
:10087000EE50FE4FB182A082DF91CF911F910F9178
:10088000FF90EF90DF90CF90BF90AF903F902F9070
:1008900008951F920F920FB60F9211242F933F933A
:1008A0004F935F936F937F938F939F93AF93BF9378
:1008B000EF93FF9380916A01882321F08091A90131
:1008C000882389F18091A601813049F480912C011F
:1008D00090912D01909351018093500114C080E0BC
:1008E00090E09C01220F331FF901EE5DFE4F408125
:1008F00051812A5B3E4FF901518340830196823139
:10090000910579F782DC8091A601833011F05C9823
:1009100003C05C985D98479881E080936A011092CB
:10092000A9011092A701FF91EF91BF91AF919F9103
:100930008F917F916F915F914F913F912F910F9088
:100940000FBE0F901F9018951F920F920FB60F9227
:1009500011242F923F92CF92DF92FF920F931F9319
:100960002F933F934F935F936F937F938F939F93B7
:10097000AF93BF93EF93FF93DF93CF93CDB7DEB7E2
:10098000A197DEBFCDBF40918400509185005A836E
:1009900049838091A6018230C9F48091A8018823FF
:1009A00009F073DC189B02C0469A01C04698A895CE
:1009B00010926A0180914F028F5F80934F028138BD
:1009C00008F47FC14D9A10924F027BC18091A6011D
:1009D000813009F077C013B11B83A0914E02A1278B
:1009E00060EEC62E6CEFD62EC40ED51E01E0B1E02F
:1009F0008B2F8A2309F443C08B2F8095A8232B2F9C
:100A00002123802F90E041F0FC01EE0FFF1FEF5AF1
:100A1000FD4F5183408333C0FC01EE0FFF1FEF5A9F
:100A2000FD4F20813181B601621B730B9B017DE07C
:100A30002934370748F5E3E0283E3E0728F1A8951A
:100A400010926A01FC01E557FD4FF0806F2D64366E
:100A500018F4F080F394F082FC01E758FD4F108207
:100A6000FC01EE0FFF1FEA5BFE4F80819181029631
:100A7000821B930B8530910510F031832083AA23CC
:100A800049F00E5FBB0FB4CF8091A7018F5F8093B9
:100A9000A701F5CF8091A801882309F4B6DB8091E6
:100AA00050028F5F80935002882341F44C9A8091CA
:100AB000A701853618F088EC809350028B818093D3
:100AC0004E02FFC08091A601833009F0FAC0DE011A
:100AD0001496E6E8F1E08EE101900D928150E1F785
:100AE00083B18B8300914E02082780934E02809140
:100AF0006A01882351F080E043DB81E041DB109202
:100B0000AD011092AB0110926A018091AD01882372
:100B100031F42091820124FF24C03A8905C020913C
:100B2000840124FF1EC039A1802F90E0032E02C053
:100B3000959587950A94E2F780FF13C08B8190E02A
:100B400002C0959587953A95E2F781709070221FC3
:100B50002227221F30E08217930711F0469A01C026
:100B60004698802F90E09C010A8802C03595279511
:100B70000A94E2F720FF1BC009A002C09595879553
:100B80000A94E2F78E010F5F1F4F80FF0DC0109295
:100B9000F8018FEF8093F70110924802809347028B
:100BA000180180E098DB07C0180180E005C01E0135
:100BB0000894211C311C81E08EDB2091820124FFEE
:100BC00039C0E091AC01F0E0EE0FFF1FE053FE4FA3
:100BD000808191817FE0813A9707B0F09091840104
:100BE0008091AD0194FF0AC0882309F04BC081E0D9
:100BF0008093AD0184E68093AB0144C0813009F05D
:100C000041C023FF3FC03CC08091AD01813079F4E9
:100C100023FF38C08091AB018F5F8093AB01843696
:100C200020F48091840184FD2DC01092AD011092BA
:100C3000AB0128C08091840184FF0AC09091AD016E
:100C4000992301F583FF1EC081E08093AD011AC096
:100C50008091A8018823A1F480E090E09C01220FFC
:100C6000331FF901EE5DFE4F408151812A5B3E4FFB
:100C7000F9015183408301968231910579F7C5DAF4
:100C80001092AD01A8958091820184FD02C05D980B
:100C900001C05D9A8091840184FD02C05C9801C00E
:100CA0005C9A8091AD01813059F4809175028F5F1B
:100CB000809375028E3F28F0379A1092750201C01A
:100CC0004798A196DEBFCDBFCF91DF91FF91EF9105
:100CD000BF91AF919F918F917F916F915F914F9154
:100CE0003F912F911F910F91FF90DF90CF903F90F8
:100CF0002F900F900FBE0F901F90189578941F9211
:100D00000F920FB60F9211242F933F938F939F93BF
:100D1000EF93FF93E0916B01F0E0E758FD4F808186
:100D2000893208F43CC080916B018830E8F4F89473
:100D30002091880030918900E0916B01F0E0EE0F86
:100D4000FF1FEE5DFE4F80819181820F931F909374
:100D5000890080938800789480916B018530C9F474
:100D600081E080936A0115C0F89420918800309149
:100D70008900E0916B01F0E0EE0FFF1FEA5BFE4F90
:100D800080819181820F931F9093890080938800C6
:100D900078948091A601833039F15C9825C0F8944D
:100DA0002091880030918900E0916B01F0E0EE0F16
:100DB000FF1FEA5BFE4F80819181820F931F90930A
:100DC0008900809388007894E0916B01F0E0E5570A
:100DD000FD4F8081843640F0E0916B01F0E0E758F0
:100DE000FD4F80818F5F808380916B018F5F809347
:100DF0006B0180916B01823138F010926B01809110
:100E0000A601833009F04D9AFF91EF919F918F9148
:100E10003F912F910F900FBE0F901F90189504B621
:100E200000FC0BC004B601FC08C004B602FE05C0FD
:100E300014BE81E08093A90101C014BE3A9A549A6D
:100E4000559A3F9A5C9A5D9A479A8091A6018823A9
:100E500099F52198299A26982E9A229A2A98279AC3
:100E60002F982AE02A95F1F700C091E0199990E0B7
:100E700081E01E9980E02A9A2F9A2AE02A95F1F7BC
:100E800000C019999F5F1E998F5F2A982F982AE0BA
:100E90002A95F1F700C0199B9F5F1E9B8F5F9330CF
:100EA00011F482E007C0833021F48093A6014798B3
:100EB00003C081E08093A60114B885B18FEF85B996
:100EC000509A8091AA01882311F0589801C0589A2D
:100ED0008091A601813019F48FEF80936B0080918F
:100EE000A601823019F481E080936B008091A60105
:100EF000833031F481E180936B0082E08093810044
:100F0000809168008160809368003E9A88E10FB606
:100F1000F89480936000109260000FBEA8958091B5
:100F2000600088618093600084E48093600008958D
:100F300087E690E09093CD008093CC0086E080938C
:100F4000CA001092C80088E18093C900539A5A9A47
:100F50003BD384E085BD5F9A579A0895CF92DF9284
:100F6000EF92FF920F931F935ADFE2DF8FB7F8944F
:100F700022E233E03093A3032093A2033093A5032E
:100F80002093A4038FBF4FB7F8948DE992E090931C
:100F90001E0380931D039093200380931F034FBF74
:100FA0007894122F032FE82ED92E23E0F22E9FB72C
:100FB000F8948091A6039FBF803811F18CE691E0F0
:100FC00094D697FD1DC0E091A203F091A303808306
:100FD000E091A203F091A303CF0101969093A303A4
:100FE0008093A20323E0823A920711F411830283D3
:100FF0009FB7F8948091A6038F5F8093A6039FBF4D
:101000008FB7F894C09021038FBFA89903C08C2D8F
:10101000813638F1A89A80912103882301F1F0925A
:1010200076021DC0E0911F03F09120036191F093BF
:101030002003E0931F0323E0ED31F20721F4E09257
:101040001F03D09220039FB7F89480912103815011
:10105000809321039FBF8CE691E0E0D5CA94CC2019
:1010600009F79FB7F8948091A6039FBF882309F1E1
:10107000E091A403F091A5039191F093A503E0936F
:10108000A40383E0E23AF80721F41093A403009349
:10109000A5032FB7F8948091A60381508093A603EF
:1010A0002FBF8091C80085FFFCCF9093CE00F092B7
:1010B00077028CE691E00AD6DCD479CF8CE691E019
:1010C00074C58CE691E007C51F93CF93DF93EC01C5
:1010D000EC89E150E23028F4F0E0EC55FE4F10814D
:1010E00001C010E08B89823009F418608D89873047
:1010F00031F0883031F0863029F4126003C014607A
:1011000001C016601092C9001092C8001092CA0067
:101110002F85388949895A89203081EE380780E047
:10112000480780E0580771F0CA01B9019695879584
:101130007795679560587B47814E9F4F14D6215015
:10114000304002C020E130E03093CD002093CC004D
:101150001093CA008F859889A989BA89803021EEB9
:10116000920720E0A20720E0B20711F480E001C05E
:1011700082E08093C80088E98093C900DF91CF9115
:101180001F9108951F920F920FB60F9211242F9363
:101190008F939F93EF93FF938091CE009EB39430F3
:1011A000F9F4E0911D03F0911E038083E0911D038B
:1011B000F0911E03CF01019690931E0380931D03AF
:1011C00023E08D31920721F48DE992E092838183AF
:1011D0009FB7F894809121038F5F809321039FBF75
:1011E000FF91EF919F918F912F910F900FBE0F90D4
:1011F0001F901895FC01858580FF02C05F980895B7
:101200005F9A0895923029F0933041F09130F9F4CB
:1012100019C02EE330E0EAEAF0E01DC0813049F069
:10122000813018F0823099F408C0E8EEF0E02491A3
:1012300007C0ECEEF0E0249103C0E0E2F1E024917D
:1012400030E009C022E130E0E8E9F0E004C020E04D
:1012500030E0E0E0F0E0DA011196FC93EE93C90192
:10126000089528E030E040E003C04F5F220F331FB5
:1012700028173907D0F3842F8295807F08958093B3
:10128000E900EBEEF0E0808181608083EDEEF0E03C
:1012900010826093EC0040838091EE00881F8827C5
:1012A000881F08951092F40080E08093E900109266
:1012B000F0001092E8001092ED009091EB009E7FFC
:1012C0009093EB008F5F853081F708958091AB0399
:1012D00087FF11C003C08EB38823B1F08091E8006E
:1012E00082FFF9CF8091E8008B778093E800089522
:1012F0008EB3882349F08091E80080FFF9CF809178
:10130000E8008E778093E800089584E69091EC00E1
:1013100090FF05C09091E80090FF05C01BC0909120
:10132000E80092FD17C09EB39923B1F09EB39530AB
:10133000A9F09091EB0095FD13C09091E10092FF10
:10134000E5CF9091E1009B7F9093E100882351F0DD
:101350008150DCCF80E0089582E0089583E0089515
:1013600081E0089584E00895282F392FF9018091B4
:10137000B1039091B2038617970718F4BC0190E06F
:1013800032C061157105D9F78091E8008E7780939E
:10139000E800F5CF8091E80083FD37C08091E80038
:1013A00082FD2DC08EB38823A1F18EB3853079F1F3
:1013B0008091E80080FF17C08091F20006C09191F3
:1013C0009093F100615070408F5F6115710511F0CD
:1013D0008830A8F391E0883009F090E08091E8002F
:1013E0008E778093E80061157105A1F6992391F637
:1013F00006C08EB3882369F08EB3853061F080918A
:10140000E80082FFF6CF80E0089581E0089583E050
:10141000089582E0089583E00895282F392FC901A7
:101420002091B1033091B2032617370718F4B901A0
:1014300030E034C061157105D9F72091E8002E77AE
:101440002093E800F5CF2091E80023FD39C02091DA
:10145000E80022FD2FC02EB32223B1F12EB3253098
:1014600089F12091E80020FF19C02091F20008C006
:10147000FC010196E491E093F100615070402F5F10
:101480006115710511F0283098F331E0283009F02A
:1014900030E02091E8002E772093E8006115710577
:1014A00091F6332381F606C08EB3882369F08EB39C
:1014B000853061F08091E80082FFF6CF80E00895EA
:1014C00081E0089583E0089582E0089583E008951F
:1014D0006115710519F51DC02091E80023FD2EC08E
:1014E0002EB3222379F12EB3253051F12091E8005B
:1014F00022FFF2CFE82FF92F07C08091F1008193EE
:10150000CF016150704029F0CF012091F2002223D9
:10151000A1F72091E8002B772093E8006115710571
:10152000D9F606C08EB3882369F08EB3853061F09A
:101530008091E80080FFF6CF80E0089581E0089573
:1015400083E0089582E0089583E0089542D044D076
:101550001EBA1092A9031092A8031092A70384E068
:1015600089BD89B5826089BD09B400FEFDCF809137
:10157000D800982F9F779093D80080688093D800E8
:10158000809163008E7F809363008091D8008F7D6F
:101590008093D8008091E0008E7F8093E00080915E
:1015A000E1008E7F8093E1008091E2008160809372
:1015B000E2008091E100877F8093E1008091E2006A
:1015C00088608093E2000895C1DF81E08093AA03E0
:1015D00008951092E20008951092E10008951F927C
:1015E0000F920FB60F9211242F933F934F935F9357
:1015F0006F937F938F939F93AF93BF93EF93FF93DB
:101600008091E10080FF1CC08091E20080FF18C043
:101610008091E1008E7F8093E1008091E2008E7FD7
:101620008093E2008091E20080618093E2008091EB
:10163000D80080628093D80019BC1EBA0E940001B5
:101640008091E10084FF2AC08091E20084FF26C0DF
:1016500084E089BD89B5826089BD09B400FEFDCFF3
:101660008091D8008F7D8093D8008091E1008F7E9B
:101670008093E1008091E2008F7E8093E200809170
:10168000E20081608093E2008091A903882311F039
:1016900084E001C081E08EBB0E94FA008091E100ED
:1016A00083FF27C08091E20083FF23C08091E10087
:1016B000877F8093E10082E08EBB1092A903809126
:1016C000E1008E7F8093E1008091E2008E7F809325
:1016D000E2008091E20080618093E200E3DD80E03F
:1016E00060E042E0CCDD8091F00088608093F00003
:1016F000BFD18091E10082FF0AC08091E20082FFA9
:1017000006C08091E1008B7F8093E100B1D1FF9111
:10171000EF91BF91AF919F918F917F916F915F9169
:101720004F913F912F910F900FBE0F901F901895E2
:101730001F920F920FB60F921124EF92FF920F9308
:101740001F932F933F934F935F936F937F938F9349
:101750009F93AF93BF93EF93FF93DF93CF930F923A
:10176000CDB7DEB789EEE82EF12CF70180818770C6
:10177000108200EF10E0F8019081977F90837894B9
:10178000898322D0F894F7011082F8019081986043
:1017900090838981F70180830F90CF91DF91FF9132
:1017A000EF91BF91AF919F918F917F916F915F91D9
:1017B0004F913F912F911F910F91FF90EF900F90BC
:1017C0000FBE0F901F9018951F93DF93CF93CDB747
:1017D000DEB7AC970FB6F894DEBF0FBECDBFEBEA15
:1017E000F3E08091F100819323E0E33BF207C9F736
:1017F0008091AB032091AC03253009F484C02630DE
:1018000040F42130A1F1213070F0233009F017C1EC
:101810002EC0283009F4E9C0293009F4F8C0263078
:1018200009F00DC18EC0803821F0823809F007C15F
:1018300008C08091A7039091A803992371F082605A
:101840000CC08091AF0387708093E9009091EB000A
:1018500081E095FF80E01092E9009091E800977F89
:101860009093E8008093F1001092F100C9C08823A2
:1018700019F0823009F0E3C090E08F71907000970A
:1018800029F08230910509F0DBC00BC08091AD03D7
:10189000813009F0D5C0233009F080E08093A8039F
:1018A0002CC08091AD03882341F52091AF032770B0
:1018B00009F4C6C02093E9008091EB0080FFC0C00E
:1018C0008091AC03833021F48091EB00806213C0DF
:1018D0008091EB0080618093EB0081E090E002C09A
:1018E000880F991F2A95E2F78093EA001092EA0088
:1018F0008091EB0088608093EB001092E90080916A
:10190000E800877F80C0882309F099C01091AD035B
:101910008091E800877F8093E800D8DC04C08EB314
:10192000882309F48DC08091E80080FFF8CF1F77ED
:1019300011F083E001C082E08EBB10681093E300D9
:101940007FC08058823008F07AC08091AD039091BA
:10195000AE0323E08C3D920789F583E08C838AE215
:101960008B833FB7F894DE01159680E090E02EE07F
:1019700041E2E22FF0E040935700E49180FF03C082
:10198000E295EF702F5FEF705E2F505D5A3308F0D5
:10199000595F5C9311961C921197129601968431AF
:1019A000910539F73FBF8091E800877F8093E80079
:1019B000CE0103966AE270E0D7DC11C06091AF03FC
:1019C000AE014F5F5F4F1EDCBC010097C9F18091F3
:1019D000E800877F8093E80089819A811EDD8091ED
:1019E000E8008B778093E8002BC0803841F5809128
:1019F000E800877F8093E8008091A9038093F1003D
:101A00008091E8008E778093E80060DC19C088231D
:101A1000B1F49091AD03923098F48091E800877F03
:101A20008093E8009093A90351DC8091A903882357
:101A300011F084E001C083E08EBB40DB01C041DBDC
:101A40008091E80083FF0AC08091EB008062809360
:101A5000EB008091E800877F8093E800AC960FB69A
:101A6000F894DEBF0FBECDBFCF91DF911F910895D7
:101A700008951F938EB3882361F01091E9001770C9
:101A80001092E9008091E80083FF01C09DDE109371
:101A9000E9001F910895FF920F931F93DF93CF9357
:101AA0000F92CDB7DEB7182FF42EC9016983D9DBA9
:101AB00069816295660F660F607C6F29402F4260D6
:101AC000482B812FDCDB0F90CF91DF911F910F917D
:101AD000FF9008950895CF93DF93EC018091E80083
:101AE00083FF60C0888190E02091AF033091B00304
:101AF0002817390709F056C08091AC03813261F094
:101B0000823220F4803209F04DC019C0823269F16E
:101B1000833209F047C038C08091AB03813A09F0A5
:101B200041C08091E800877F8093E800CE010F9646
:101B300067E070E019DC8091E8008B7713C080913A
:101B4000AB03813279F58091E800877F8093E800CC
:101B5000CE010F9667E070E0BBDCCE01B5DA809174
:101B6000E8008E778093E8001DC08091AB0381323E
:101B7000C9F48091E800877F8093E8008091AD03ED
:101B80008D87CE0137DB0DC08091AB03813251F4DC
:101B90008091E800877F8093E800CE016091AD03DB
:101BA00099DF94DBDF91CF9108950F93CF93DF936B
:101BB000EC010D96FC0189E0DF011D928A95E9F7A1
:101BC0002A813B8189819C81992311F004E001C025
:101BD00000E062E041E05FDF8130D9F42E813F8197
:101BE0008D819885992311F004E001C000E062E046
:101BF00040E051DF813069F42A853B8589859C85E9
:101C0000992311F004E001C000E063E041E043DF0C
:101C100001C080E0DF91CF910F910895DF93CF93C2
:101C20000F92CDB7DEB7FC018EB38430F1F4278577
:101C30003089418952892115310541055105A9F0A5
:101C400081818093E9008091E80085FD0AC0809140
:101C5000E8008E778093E800698357DB69818823E9
:101C600029F46093F10080E001C082E00F90CF91F1
:101C7000DF910895FC018EB3843011F527853089FA
:101C8000418952892115310541055105C9F08181EC
:101C90008093E9008091F2008823A1F09091E80000
:101CA0008091E8008E778093E80095FD0DC02DDBD4
:101CB000882359F49091E8009E779093E800089566
:101CC00082E0089580E0089580E008952EB32430E6
:101CD00059F4FC0127853089418952892115310544
:101CE0004105510509F0C6CF0895FC018EB384303B
:101CF00021F5278530894189528921153105410512
:101D00005105D9F085818093E9008091E80082FF38
:101D100014C08091F200882321F02091F10030E07E
:101D200002C02FEF3FEF8091F200882341F48091B1
:101D3000E8008B778093E80002C02FEF3FEFC901E6
:101D400008955527002480FF02C0060E571F660F16
:101D5000771F6115710521F096958795009799F782
:101D6000952F802D0895A1E21A2EAA1BBB1BFD0101
:101D70000DC0AA1FBB1FEE1FFF1FA217B307E4076A
:101D8000F50720F0A21BB30BE40BF50B661F771FC2
:101D9000881F991F1A9469F76095709580959095A2
:0E1DA0009B01AC01BD01CF010895F894FFCF67
:101DAE004172647550504D76332E302E3100002D19
:101DBE0047504C76332D6C6963656E63696E672D83
:101DCE00000020039808200398082003E80320034E
:101DDE00980820030609200398082003980820037A
:101DEE00980820030852200398082003980820031F
:101DFE00780520039808200306092003980820037D
:101E0E00980820039808200308520111000340008F
:101E1E000004400000020800000000000000000066
:101E2E00000006000600AA05C61190011A04181536
:101E3E0060EA051000AA05C61190011A0418156073
:061E4E00EA05100430203B
:00000001FF
